{
  "contractName": "Courses",
  "abi": [
    {
      "constant": true,
      "inputs": [
        {
          "name": "",
          "type": "uint256"
        }
      ],
      "name": "instructorAccts",
      "outputs": [
        {
          "name": "",
          "type": "address"
        }
      ],
      "payable": false,
      "stateMutability": "view",
      "type": "function",
      "signature": "0x8eb5234c"
    },
    {
      "inputs": [],
      "payable": false,
      "stateMutability": "nonpayable",
      "type": "constructor",
      "signature": "constructor"
    },
    {
      "constant": false,
      "inputs": [
        {
          "name": "_address",
          "type": "address"
        },
        {
          "name": "_age",
          "type": "uint256"
        },
        {
          "name": "_fName",
          "type": "string"
        },
        {
          "name": "_lName",
          "type": "string"
        }
      ],
      "name": "setInstructor",
      "outputs": [],
      "payable": false,
      "stateMutability": "nonpayable",
      "type": "function",
      "signature": "0x46428adc"
    },
    {
      "constant": true,
      "inputs": [],
      "name": "getInstructors",
      "outputs": [
        {
          "name": "",
          "type": "address[]"
        }
      ],
      "payable": false,
      "stateMutability": "view",
      "type": "function",
      "signature": "0x5eff7dae"
    },
    {
      "constant": true,
      "inputs": [
        {
          "name": "_address",
          "type": "address"
        }
      ],
      "name": "getInstructor",
      "outputs": [
        {
          "name": "",
          "type": "uint256"
        },
        {
          "name": "",
          "type": "string"
        },
        {
          "name": "",
          "type": "string"
        }
      ],
      "payable": false,
      "stateMutability": "view",
      "type": "function",
      "signature": "0x0429e372"
    },
    {
      "constant": true,
      "inputs": [],
      "name": "countInstructors",
      "outputs": [
        {
          "name": "",
          "type": "uint256"
        }
      ],
      "payable": false,
      "stateMutability": "view",
      "type": "function",
      "signature": "0xca8ab933"
    }
  ],
  "bytecode": "0x608060405234801561001057600080fd5b506100ab73db089761e0c088221966f42e1ba151586ca433b360166040805190810160405280600581526020017f466e616d650000000000000000000000000000000000000000000000000000008152506040805190810160405280600581526020017f4c6e616d6500000000000000000000000000000000000000000000000000000081525061014a640100000000026401000000009004565b6101457313e6f3e195b773977253e4fc4d36972675c5ecae60236040805190810160405280600681526020017f52616e646f6d00000000000000000000000000000000000000000000000000008152506040805190810160405280600381526020017f477579000000000000000000000000000000000000000000000000000000000081525061014a640100000000026401000000009004565b61034f565b826000808673ffffffffffffffffffffffffffffffffffffffff1673ffffffffffffffffffffffffffffffffffffffff16815260200190815260200160002060000181905550816000808673ffffffffffffffffffffffffffffffffffffffff1673ffffffffffffffffffffffffffffffffffffffff16815260200190815260200160002060010190805190602001906101e59291906102aa565b50806000808673ffffffffffffffffffffffffffffffffffffffff1673ffffffffffffffffffffffffffffffffffffffff168152602001908152602001600020600201908051906020019061023b9291906102aa565b506001808590806001815401808255809150509060018203906000526020600020016000909192909190916101000a81548173ffffffffffffffffffffffffffffffffffffffff021916908373ffffffffffffffffffffffffffffffffffffffff160217905550505050505050565b828054600181600116156101000203166002900490600052602060002090601f016020900481019282601f106102eb57805160ff1916838001178555610319565b82800160010185558215610319579182015b828111156103185782518255916020019190600101906102fd565b5b509050610326919061032a565b5090565b61034c91905b80821115610348576000816000905550600101610330565b5090565b90565b6109628061035e6000396000f3fe60806040526004361061006d576000357c0100000000000000000000000000000000000000000000000000000000900463ffffffff1680630429e3721461007257806346428adc146101af5780635eff7dae146103385780638eb5234c146103a4578063ca8ab9331461041f575b600080fd5b34801561007e57600080fd5b506100c16004803603602081101561009557600080fd5b81019080803573ffffffffffffffffffffffffffffffffffffffff16906020019092919050505061044a565b604051808481526020018060200180602001838103835285818151815260200191508051906020019080838360005b8381101561010b5780820151818401526020810190506100f0565b50505050905090810190601f1680156101385780820380516001836020036101000a031916815260200191505b50838103825284818151815260200191508051906020019080838360005b83811015610171578082015181840152602081019050610156565b50505050905090810190601f16801561019e5780820380516001836020036101000a031916815260200191505b509550505050505060405180910390f35b3480156101bb57600080fd5b50610336600480360360808110156101d257600080fd5b81019080803573ffffffffffffffffffffffffffffffffffffffff169060200190929190803590602001909291908035906020019064010000000081111561021957600080fd5b82018360208201111561022b57600080fd5b8035906020019184600183028401116401000000008311171561024d57600080fd5b91908080601f016020809104026020016040519081016040528093929190818152602001838380828437600081840152601f19601f820116905080830192505050505050509192919290803590602001906401000000008111156102b057600080fd5b8201836020820111156102c257600080fd5b803590602001918460018302840111640100000000831117156102e457600080fd5b91908080601f016020809104026020016040519081016040528093929190818152602001838380828437600081840152601f19601f820116905080830192505050505050509192919290505050610658565b005b34801561034457600080fd5b5061034d6107b8565b6040518080602001828103825283818151815260200191508051906020019060200280838360005b83811015610390578082015181840152602081019050610375565b505050509050019250505060405180910390f35b3480156103b057600080fd5b506103dd600480360360208110156103c757600080fd5b8101908080359060200190929190505050610846565b604051808273ffffffffffffffffffffffffffffffffffffffff1673ffffffffffffffffffffffffffffffffffffffff16815260200191505060405180910390f35b34801561042b57600080fd5b50610434610884565b6040518082815260200191505060405180910390f35b60006060806000808573ffffffffffffffffffffffffffffffffffffffff1673ffffffffffffffffffffffffffffffffffffffff168152602001908152602001600020600001546000808673ffffffffffffffffffffffffffffffffffffffff1673ffffffffffffffffffffffffffffffffffffffff1681526020019081526020016000206001016000808773ffffffffffffffffffffffffffffffffffffffff1673ffffffffffffffffffffffffffffffffffffffff168152602001908152602001600020600201818054600181600116156101000203166002900480601f0160208091040260200160405190810160405280929190818152602001828054600181600116156101000203166002900480156105a85780601f1061057d576101008083540402835291602001916105a8565b820191906000526020600020905b81548152906001019060200180831161058b57829003601f168201915b50505050509150808054600181600116156101000203166002900480601f0160208091040260200160405190810160405280929190818152602001828054600181600116156101000203166002900480156106445780601f1061061957610100808354040283529160200191610644565b820191906000526020600020905b81548152906001019060200180831161062757829003601f168201915b505050505090509250925092509193909250565b826000808673ffffffffffffffffffffffffffffffffffffffff1673ffffffffffffffffffffffffffffffffffffffff16815260200190815260200160002060000181905550816000808673ffffffffffffffffffffffffffffffffffffffff1673ffffffffffffffffffffffffffffffffffffffff16815260200190815260200160002060010190805190602001906106f3929190610891565b50806000808673ffffffffffffffffffffffffffffffffffffffff1673ffffffffffffffffffffffffffffffffffffffff1681526020019081526020016000206002019080519060200190610749929190610891565b506001808590806001815401808255809150509060018203906000526020600020016000909192909190916101000a81548173ffffffffffffffffffffffffffffffffffffffff021916908373ffffffffffffffffffffffffffffffffffffffff160217905550505050505050565b6060600180548060200260200160405190810160405280929190818152602001828054801561083c57602002820191906000526020600020905b8160009054906101000a900473ffffffffffffffffffffffffffffffffffffffff1673ffffffffffffffffffffffffffffffffffffffff16815260200190600101908083116107f2575b5050505050905090565b60018181548110151561085557fe5b906000526020600020016000915054906101000a900473ffffffffffffffffffffffffffffffffffffffff1681565b6000600180549050905090565b828054600181600116156101000203166002900490600052602060002090601f016020900481019282601f106108d257805160ff1916838001178555610900565b82800160010185558215610900579182015b828111156108ff5782518255916020019190600101906108e4565b5b50905061090d9190610911565b5090565b61093391905b8082111561092f576000816000905550600101610917565b5090565b9056fea165627a7a72305820932e70c77adce2687b301db09427f979ef8a8585e914cac033e6c808e15522c40029",
  "source": "pragma solidity ^0.5.0;\n\ncontract Courses {\n    \n    struct Instructor {\n        uint age;\n        string fName;\n        string lName;\n    }\n    \n    mapping (address => Instructor) instructors;\n    address[] public instructorAccts;\n    constructor() public{\n\tsetInstructor(0xDb089761E0c088221966f42E1ba151586CA433B3,22,\"Fname\",\"Lname\");\n\tsetInstructor(0x13E6f3e195B773977253E4Fc4D36972675C5EcAE,35,\"Random\",\"Guy\");\n\t}\n    function setInstructor(address _address, uint _age, string memory _fName, string memory _lName) public {\n                \n         instructors[_address].age = _age;\n         instructors[_address].fName = _fName;\n         instructors[_address].lName = _lName;\n        \n        instructorAccts.push(_address) -1;\n    }\n    \n    function getInstructors() view public returns(address[] memory) {\n        return instructorAccts;\n    }\n    \n    function getInstructor(address _address) view public returns (uint, string memory, string memory) {\n        return (instructors[_address].age, instructors[_address].fName, instructors[_address].lName);\n    }\n    \n    function countInstructors() view public returns (uint) {\n        return instructorAccts.length;\n    }\n    \n}",
  "sourcePath": "D:/College/Spring_2019/mappings/contracts/Courses.sol",
  "compiler": {
    "name": "solc",
    "version": "0.5.0+commit.1d4f565a.Emscripten.clang"
  },
  "schemaVersion": "3.0.2",
  "updatedAt": "2019-04-18T01:06:12.892Z",
  "devdoc": {
    "methods": {}
  },
  "userdoc": {
    "methods": {}
  }
}